8=FIX.4.2^A 9=154^A 35=D^A 34=578^A 49=LEH_LZJ02^A 52=20100302-22:50:34^A 56=CCG^A
115=LZJ^A 11=NF 0040/03022010^A 54=1^A 38=1000^A 55=IOC^A 40=2^A 44=49.38^A 59=0^A
1=ABC123ZYX^A 21=1^A 207=N^A 47=A^A 111=0^A 10=121^A 


